:1018000043C083C068C067C066C065C064C063C0B1
:1018100062C061C060C05FC05EC05DC05CC05BC0D4
:101820005AC059C058C0EC2DFD2DB7B6B0FCFDCF45
:1018300027BFE895B7B6B0FCFDCF21E1B7B6B6FC3F
:10184000F4CF08950902120001010080320904005A
:1018500000000000000012011001FF000008C01687
:10186000DC050201010200010E0355005300420095
:101870006100730070000E0366006900730063006E
:1018800068006C000403090411241FBECFE5D4E0F6
:10189000DEBFCDBF24B7D4E0CEE539913C303991DD
:1018A00009F03FEF30939B0020939A0010E0A0E6F0
:1018B000B0E0E8EEFFE102C005900D92A636B10758
:1018C000D9F720E0A6E6B0E001C01D92AA39B20720
:1018D000E1F798D187C394CFA82FB92F80E090E08B
:1018E00041E050EA609530E009C02D91822797953C
:1018F000879510F084279527305EC8F36F5FA8F3B3
:101900000895EADF8D939D930895CF93CFB7CF933A
:10191000C395839BE9F7839B09C0839B07C0839B87
:1019200005C0839B03C0839B01C0A1C0DF93C0910E
:101930007D00DD27CC57DF4F839B02C0DF91EBCFCB
:101940002F930F931F9300B32FEF03FB20F94F93B7
:101950003F9310B34FEF012703FB21F93BE031C068
:101960004E7F012F10B3216028C0102F4D7F2260C1
:10197000000000B329C04B7F2460012F000010B38A
:101980002BC010B3477F28602AC04F7E00B3206170
:101990002CC04F7D10B320622FC04F7B00B320645A
:1019A00032C0422700B349934FEF0000102713FBCA
:1019B00020F910B31C70C9F1297F91F2012703FBB4
:1019C00021F900B3237F89F2315058F1102713FB1E
:1019D00022F910B3277E79F2012703FB23F92F7C2C
:1019E00081F200B3102713FB24F92F7971F200C0A4
:1019F00010B3012703FB25F92F7359F200C000B380
:101A0000102713FB26F9223040F200C010B3012743
:101A100003FB27F9243028F64F77206810B3000025
:101A2000F9CF10E41ABF002717C03B503195C31BF4
:101A3000D04010E41ABF0881033CE9F00B34D9F020
:101A400020917B001981110F1213EDCF093641F15E
:101A50000D3211F0013E39F7009382003F914F9112
:101A60001F910F912F91DF91CAB7C6FD51CFCF9132
:101A7000CFBFCF91189520918200222379F3109146
:101A80008000112311F5343012F13093800020933F
:101A90007C0010917D003BE0311B30937D0017C02E
:101AA0000091800001308CF40AE53091610034FD32
:101AB00010C000936100C0E7D0E00FC02795A8F4E4
:101AC0005150A9F4220F0000F9CF4AE503C042EDBE
:101AD00001C0432FC4E1D0E032E011B31C60939AFF
:101AE00011BB02B320E41CE05F93012756E002BB68
:101AF000279520F4515021F4220FF9CF012756E009
:101B000000003B5A02BBD0F2279528F4515029F42B
:101B1000220F0000F9CF012756E0279502BB20F4E1
:101B2000515021F4220FF9CF012756E02991332398
:101B300002BB21F6037F10918100110FC651D040E6
:101B400002BB11F010937B0010E41ABF086011B3C0
:101B5000137F402F437F5F9100C000C002BB11BBC9
:101B600042BB7CCFF8948B9A96981BBE15BEF1E0D1
:101B7000FBBF1BBE45C2DC0113963C911397932F0C
:101B80001496EC9114978E2F12962C911297203365
:101B900031F4E370F0E0EE59FF4F8081089528356D
:101BA00029F431110EC0E1E0F0E006C0203571F4F7
:101BB000311126C0E0E0F0E089E080935700849185
:101BC00008953830E9F4E3E0F0E0F6CF203221F474
:101BD000FC01EE0FFF1F06C0283231F4880F991F59
:101BE000FC01319684910895203A09F4E6C1203C25
:101BF00021F415966C91E9D103C02F3F09F411EF40
:101C000080E0089511BA80E482BB81E08BBF82E05E
:101C10008BBF83E031978040E9F780919A00877FFE
:101C200021F480919B00882311F086999BDF1EEFA1
:101C300014BE85B7826085BF8BB780648BBF8B9ADB
:101C40008CE031978040E9F78B9878940091800080
:101C5000035007FD25C180917D00CCE0D0E0C81B7A
:101C6000D109CC57DF4F80917C008D3209F0AFC095
:101C7000083009F013C183EC809370008AE58093EB
:101C8000610010926F003881932F9076898199239B
:101C9000A1F146E650E050937F0040937E008330F0
:101CA00031F4CE0168DF8093690094E086C085300E
:101CB00009F482C08A3009F47FC09CEF980F9630F7
:101CC000B0F44A815B8150936E0040936D0089307F
:101CD00009F471C19E8190936C002D812270209334
:101CE0006B0080936A0037FD63C09FEF61C0823054
:101CF00011F41E7F60C111605EC19A81109279005B
:101D0000811106C010927A0029E730E092E04BC0C2
:101D1000853019F49093810038C0863081F58B812D
:101D2000813019F486E598E104C0823041F484E4FE
:101D300098E190937F0080937E0092E11CC08330F5
:101D4000C9F4911108C084E898E190937F008093D2
:101D50007E0094E010C0913019F486E798E104C049
:101D6000923041F488E698E190937F0080937E0062
:101D70009EE001C090E080E480936F001EC0883038
:101D800079F0893031F49093830029E730E090E0D6
:101D90000AC091E08A3009F090E029E730E003C002
:101DA00023E830E091E030937F0020937E0005C06F
:101DB00080E880936F0008C091E08F81811104C09A
:101DC0008E81891708F4982F9093600067C08091E6
:101DD0006F0087FF63C080916C00801708F4082FA4
:101DE000801B80936C00DD24D3948111D12C8091D1
:101DF0006A008730C0F0CC2EEC2EFD2E8E2D8C1973
:101E0000801708F048C0D7016D917D0180916D0069
:101E100090916E009C012F5F3F4F30936E00209396
:101E20006D00D3D0EBCF80916B00E0916D00F0910D
:101E30006E00DE0100FD0395025048F1F83138F5DF
:101E400022D0F8940D901D9021E017D02E2F2E5FF8
:101E50002F7331F0DD2079F0882369F0003059F4D8
:101E600023E00BD010D025E008D00DD007B606FE39
:101E700002C021E102D03296DFCFF89427BFE89567
:101E800011247894089507B600FCFDCF0895F093CF
:101E90006E00E0936D00D1101092600010928000EF
:101EA0008091610084FF71C0809160008F3F09F4D0
:101EB0006CC0C82F893008F0C8E08C1B809360008C
:101EC0009091700088E8892780937000CC2309F4F2
:101ED00050C080916F0087FF2EC080916C008C17DE
:101EE00008F4C82F8C1B80936C00D0916A0081E7A6
:101EF000E82E80E0F82E81E790E0FE2DF81BFC171D
:101F0000C0F5C0906D00D0906E00D73028F0C601AB
:101F100054D0F701808304C0F6018491D7018C93DB
:101F2000BFEFEB1AFB0AEFEFCE1ADE0AD0926E007B
:101F3000C0926D00E0CF20917E0040917F003C2F49
:101F4000320FA1E7B0E086FF08C0E22FF42F8491A2
:101F50008D9331963E13FBCF08C0822F942FFC0146
:101F600081918D93CF013E13FACFF0937F00E093E0
:101F70007E006C2F81E790E0C4DCCC5FCC3019F0A0
:101F80008FEF80936000C093610084E190B39C70F8
:101F900031F48150D9F71092810010927B001031FA
:101FA00018F08699105104C0123010F0869B125020
:101FB00011114CCE3BCE90E000CFE199FECF9FBBFC
:101FC0008EBBE09A99278DB30895262FE199FECF15
:101FD0009FBB8EBB2DBB0FB6F894E29AE19A0FBE61
:081FE00001960895F894FFCF6B
:061FE800FF5A1E930700E2
:0400000300001800E1
:00000001FF
