:1000000012C021C020C01FC01EC01DC01CC01BC00C
:100010001AC019C018C017C016C015C01BC013C025
:1000200012C011C010C011241FBECFE5D4E0DEBF46
:10003000CDBF20E0A0E6B0E001C01D92AB36B20714
:10004000E1F733D0D1C0DCCF80E287B98DEC86B93F
:1000500010BE08951F920F920FB60F9211248F9326
:100060009F93EF93FF9380916000E82FF0E095B1AC
:10007000E859FF4F90838F5F833018F480936000BE
:1000800002C01092600080916000805E87B983E0BA
:100090008A95F1F70000369AFF91EF919F918F9129
:1000A0000F900FBE0F901F901895CEDF78940DD053
:1000B00081E08093610081E690E01AD087EB9BE0BD
:1000C0000197F1F700C00000F6CF84B3886384BBCA
:1000D00085B3886385BB87B3807F87BB88B38F6018
:1000E00088BB81B38F7381BB82B3806C82BB089560
:1000F000FC011182128230B320B3AB9800000000E3
:10010000000096B3AB9A000000000000AC9800001D
:100110000000000046B3AC9A000000000000AD985B
:1001200000000000000056B3AD9A0000000000007F
:1001300036FB332730F9221F2227221F220F220FDE
:10014000622F632B80E1989F90011124262B2A6057
:100150002095842F8F7090E1599FA0011124482B86
:1001600040958091640080FF03C020FD38C022606C
:100170008091640080FF09C020FF07C02E7F80911E
:10018000640081608093640002C02093640030E8C2
:10019000439FC0011124822B60916500709166001D
:1001A0008617970799F4809167008F5F80936700A7
:1001B000809167008F3180F08091670080FF0CC0D4
:1001C00081E28093670040E020E006C01092670063
:1001D0009093660080936500218342830895809107
:0C01E000640080FDCBCFD1CFF894FFCF9E
:00000001FF
