:100000004BC07FC064C063C062C061C060C05FC0DD
:100010005EC05DC05CC05BC05AC059C058C057C00C
:1000200056C055C054C0050115000904A1010509B9
:10003000190129181500250175019518550065004D
:100040008102C0090222000101008032090400007F
:100050000103000000092101010001221D00070524
:10006000810308000A1201100100000008C016DC1C
:10007000270001010200011403420075007400749E
:10008000006F006E0042006F007800080364006992
:10009000006E00040309040011241FBECFE5D4E064
:1000A000DEBFCDBF10E0A0E6B0E0ECE4F8E002C0B7
:1000B00005900D92A236B107D9F720E0A2E6B0E094
:1000C00001C01D92A53AB207E1F79AD1BDC398CFFE
:1000D000A82FB92F80E090E041E050EA609530E031
:1000E00009C02D9182279795879510F08427952731
:1000F000305EC8F36F5FA8F30895EADF8D939D9398
:100100000895CF93CFB7CF93C395839BE9F7839B94
:1001100009C0839B07C0839B05C0839B03C0839B4F
:1001200001C0A3C0DF93C0918800DD27C157DF4F16
:10013000839B02C0DF91EBCF2F930F931F9300B3EC
:100140002FEF03FB20F94F933F9310B34FEF01279D
:1001500003FB21F93BE031C04E7F012F10B321603A
:1001600028C0102F4D7F2260000000B329C04B7FB4
:100170002460012F000010B32BC010B3477F28600C
:100180002AC04F7E00B320612CC04F7D10B3206287
:100190002FC04F7B00B3206432C0422700B3499385
:1001A0004FEF0000102713FB20F910B31C70C9F1AA
:1001B000297F91F2012703FB21F900B3237F89F204
:1001C000315058F1102713FB22F910B3277E79F232
:1001D000012703FB23F92F7C81F200B3102713FBC7
:1001E00024F92F7971F200C010B3012703FB25F920
:1001F0002F7359F200C000B3102713FB26F92230E9
:1002000040F200C010B3012703FB27F9243028F681
:100210004F77206810B30000F9CF10E41ABF002711
:1002200019C03B503195C31BD04010E41ABF088160
:10023000033CF9F00B34E9F0209186001981110F8D
:100240001213EDCF4A81441F093641F10D3211F0EE
:10025000013E29F700938D003F914F911F910F911F
:100260002F91DF91CAB7C6FD4FCFCF91CFBFCF91AE
:10027000189520918D00222379F310918B00112382
:1002800069F534306AF130938B0020938700109128
:1002900088003BE0311B3093880022C000918B0026
:1002A0000130E4F40AE54F7049F43091610034FD07
:1002B00019C000936100CFE6D0E018C030917A00F9
:1002C00034FD10C000937A00CBE7D0E00FC0279533
:1002D000A8F45150A9F4220F0000F9CF4AE503C059
:1002E00042ED01C0432FC4E1D0E032E011B31C6005
:1002F000939A11BB02B320E41CE05F93012756E000
:1003000002BB279520F4515021F4220FF9CF012789
:1003100056E000003B5A02BBD0F2279528F451501A
:1003200029F4220F0000F9CF012756E0279502BBE0
:1003300020F4515021F4220FF9CF012756E02991E2
:10034000332302BB21F6037F10918C00110FC6519D
:10035000D04002BB11F01093860010E41ABF086071
:1003600011B3137F402F437F5F9100C000C002BBD9
:1003700011BB42BB71CF80E287B984E886B910BE59
:100380000895FC0180E287B90000369A349BFECFC5
:1003900085B1808381E287B90000369A349BFECF15
:1003A00085B1818382E287B90000369A349BFECF03
:1003B00085B182830895FC0183E690E090938A00E2
:1003C00080938900908190769032A1F48181813070
:1003D00099F0823041F482E690E090938A00809315
:1003E000890081E008958A3049F483818093620016
:1003F00080E0089580E0089583E0089580E0089506
:1004000016D21AD08B9A8FEFE7EBFBE03197F1F71A
:1004100000C000008150C1F78B987894CAE7D0E003
:10042000E5D0888184FFFCCF83E690E019D063E0BB
:1004300083E690E0B9D0F4CF84B3886384BB85B3FE
:10044000886385BB87B3807F87BB88B38F6088BB99
:1004500081B38F7381BB82B3806C82BB8CDF0895C4
:100460000F931F93CF93DF93EC0130B310B3AB988E
:1004700000000000000096B3AB9A000000000000EE
:10048000AC9800000000000006B3AC9A0000000029
:100490000000AD9800000000000026B3AD9A0000F7
:1004A0000000000036FB332730F9111F1127111F00
:1004B000110F110F132B30E1939FC0011124182B42
:1004C0001A6010950F7030E1239FC0011124802B1A
:1004D000082F009586E690E054DF80916600823315
:1004E00010F420E101C020E0893C08F020628091F6
:1004F0006700823308F42460893C08F0286080910A
:100500006800823308F42160893C08F0226030E8FA
:10051000039FC0011124AC01412B822F90E0992749
:10052000869597958827842B952B092E000CAA0B6E
:10053000BB0B4091690050916A0060916B00709113
:100540006C0084179507A607B707E1F430916D009A
:100550003F5F30936D008093690090936A00A09391
:100560006B00B0936C0080916D008F31A8F080918A
:100570006D0080FF11C0177081E280936D0020E054
:1005800000E00AC010926D008093690090936A00A9
:10059000A0936B00B0936C00188309832A83DF91CA
:1005A000CF911F910F910895CF93C62F20917A007C
:1005B00024FF07C0EAE7F0E0318128E82327218300
:1005C00003C02AE520937A00E82FF92FACE7B0E0CA
:1005D0008C2F91919D938150E1F76C2F8CE790E0E7
:1005E0008CDDCC5FC0937A00CF910895CF93DF93D9
:1005F00080918B0083500AF4B4C0909187009D32A3
:1006000009F0ADC0883009F0AAC080918800CCE024
:10061000D0E0C81BD109C157DF4F83EC80936F0036
:100620008AE58093610010926E008881807619F0CF
:10063000CE01C1DE8BC09A81109278008981811130
:1006400006C01092790028E730E082E07BC0853058
:1006500031F490938C0028E730E080E073C086305E
:1006600009F050C08B81813041F485E690E0909391
:100670008A008093890082E141C0823041F483E4A2
:1006800090E090938A008093890082E237C08330A3
:10069000F1F4911108C083E990E090938A0080936F
:1006A000890084E02BC0913041F48BE890E0909376
:1006B0008A008093890088E021C09230E1F487E7C6
:1006C00090E090938A008093890084E117C0813282
:1006D00041F485E590E090938A008093890089E059
:1006E0000DC0823251F486E290E090938A008093AC
:1006F00089008DE103C080E001C080E090E4909328
:100700006E0024C0883099F0893031F490938E00C7
:1007100028E730E080E016C08A3069F08B3079F449
:100720008BE480937B0028E730E080E00BC02EE86C
:1007300030E081E007C028E730E081E003C028E72F
:1007400030E080E030938A00209389009F819111EE
:1007500004C09E81981708F4892F8093600010923E
:100760008B008091610084FF4BC0809160008F3FBF
:1007700009F446C0C82F893008F0C8E08C1B80936C
:100780006000EFE6F0E0908188E889278083CC2341
:1007900009F444C02091890030918A0080916E0054
:1007A00086FF10C0A0E7B0E0F9018C2F94919D93D3
:1007B00031968150D9F78FEF8C0F90E00196280F7A
:1007C000391F0EC0D901E0E7F0E08C2F9D91919385
:1007D0008150E1F78FEF8C0F90E00196280F391FC1
:1007E00030938A00209389006C2F80E790E085DCAD
:1007F000CC5FCC3018F48FEF80936000C093610021
:1008000080B38C7089F493E180B38C7069F491505B
:10081000D9F710928C001092860006C06C2F80E7EA
:1008200090E06BDCCC5FE7CFDF91CF91089585B787
:10083000826085BF8BB780648BBFEAE7F0E08BE412
:0C08400081838AE580830895F894FFCF3F
:02084C00FF5A51
:00000001FF
