S01900005553425F4849445F427574746F6E426F782E73726563E9
S11300004BC07FC064C063C062C061C060C05FC0D9
S11300105EC05DC05CC05BC05AC059C058C057C008
S113002056C055C054C0050115000904A1010509B5
S11300301901291815002501750195185500650049
S11300408102C0090222000101008032090400007B
S11300500103000000092101010001221D00070520
S1130060810308000A1201100100000008C016DC18
S1130070270001010200011403420075007400749A
S1130080006F006E0042006F00780008036400698E
S1130090006E00040309040011241FBECFE5D4E060
S11300A0DEBFCDBF10E0A0E6B0E0E2E9F8E002C0B8
S11300B005900D92A236B107D9F720E0A2E6B0E090
S11300C001C01D92A63AB207E1F79AD1E0C398CFD6
S11300D0A82FB92F80E090E041E050EA609530E02D
S11300E009C02D9182279795879510F0842795272D
S11300F0305EC8F36F5FA8F30895EADF8D939D9394
S11301000895CF93CFB7CF93C395839BE9F7839B90
S113011009C0839B07C0839B05C0839B03C0839B4B
S113012001C0A3C0DF93C0918900DD27C057DF4F12
S1130130839B02C0DF91EBCF2F930F931F9300B3E8
S11301402FEF03FB20F94F933F9310B34FEF012799
S113015003FB21F93BE031C04E7F012F10B3216036
S113016028C0102F4D7F2260000000B329C04B7FB0
S11301702460012F000010B32BC010B3477F286008
S11301802AC04F7E00B320612CC04F7D10B3206283
S11301902FC04F7B00B3206432C0422700B3499381
S11301A04FEF0000102713FB20F910B31C70C9F1A6
S11301B0297F91F2012703FB21F900B3237F89F200
S11301C0315058F1102713FB22F910B3277E79F22E
S11301D0012703FB23F92F7C81F200B3102713FBC3
S11301E024F92F7971F200C010B3012703FB25F91C
S11301F02F7359F200C000B3102713FB26F92230E5
S113020040F200C010B3012703FB27F9243028F67D
S11302104F77206810B30000F9CF10E41ABF00270D
S113022019C03B503195C31BD04010E41ABF08815C
S1130230033CF9F00B34E9F0209187001981110F88
S11302401213EDCF4A81441F093641F10D3211F0EA
S1130250013E29F700938E003F914F911F910F911A
S11302602F91DF91CAB7C6FD4FCFCF91CFBFCF91AA
S1130270189520918E00222379F310918C0011237C
S113028069F534306AF130938C0020938800109122
S113029089003BE0311B3093890022C000918C001F
S11302A00130E4F40AE54F7049F43091610034FD03
S11302B019C000936100C0E7D0E018C030917B0002
S11302C034FD10C000937B00CCE7D0E00FC027952D
S11302D0A8F45150A9F4220F0000F9CF4AE503C055
S11302E042ED01C0432FC4E1D0E032E011B31C6001
S11302F0939A11BB02B320E41CE05F93012756E0FC
S113030002BB279520F4515021F4220FF9CF012785
S113031056E000003B5A02BBD0F2279528F4515016
S113032029F4220F0000F9CF012756E0279502BBDC
S113033020F4515021F4220FF9CF012756E02991DE
S1130340332302BB21F6037F10918D00110FC65198
S1130350D04002BB11F01093870010E41ABF08606C
S113036011B3137F402F437F5F9100C000C002BBD5
S113037011BB42BB71CF80E287B984E886B910BE55
S11303800895FC0180E287B90000369A349BFECFC1
S113039085B1808381E287B90000369A349BFECF11
S11303A085B1818382E287B90000369A349BFECFFF
S11303B085B182830895FC0183E690E090938B00DD
S11303C080938A00908190769032A1F4818181306B
S11303D099F0823041F482E690E090938B00809310
S11303E08A0081E008958A3049F483818093620011
S11303F080E0089580E0089583E0089580E0089502
S113040039D21AD08B9A8FEFE7EBFBE03197F1F7F3
S113041000C000008150C1F78B987894CBE7D0E0FE
S113042008D1888184FFFCCF83E690E019D063E093
S113043083E690E0DCD0F4CF84B3886384BB85B3D7
S1130440886385BB87B3807F87BB88B38F6088BB95
S113045081B38F7381BB82B3806C82BB8CDF0895C0
S1130460CF92DF92EF92FF920F931F93CF93DF937C
S1130470EC0130B310B3AB9800000000000096B359
S1130480AB9A000000000000AC98000000000000DF
S113049006B3AC9A000000000000AD980000000014
S11304A0000026B3AD9A00000000000036FB33279D
S11304B030F9111F1127111F110F110F132B30E1E8
S11304C0939FC0011124182B1A6010950F7030E10E
S11304D0239FC0011124802B082F009586E690E00D
S11304E050DF80916600823310F440E101C040E0A7
S11304F0893C08F0406280916700823308F44460CC
S1130500893C08F0486080916800823308F44160B7
S1130510893C08F042608091690080FF03C010FDAF
S113052058C012608091690080FF09C010FF07C0A5
S11305301E7F8091690081608093690002C01093DE
S1130540690020E8029FC0011124242F30E03327E2
S1130550269537952227822B932B812B092E000C6D
S1130560AA0BBB0BC0906A00D0906B00E0906C00AB
S1130570F0906D008C159D05AE05BF05E1F420914A
S11305806E002F5F20936E0080936A0090936B003F
S1130590A0936C00B0936D0080916E008F31A8F031
S11305A080916E0080FF11C0147081E280936E0010
S11305B040E000E00AC010926E0080936A009093BD
S11305C06B00A0936C00B0936D00188309834A8379
S11305D005C08091690080FDABCFB1CFDF91CF9191
S11305E01F910F91FF90EF90DF90CF900895CF93DC
S11305F0C62F20917B0024FF07C0EBE7F0E0318198
S113060028E82327218303C02AE520937B00E82FD1
S1130610F92FADE7B0E08C2F91919D938150E1F7D4
S11306206C2F8DE790E069DDCC5FC0937B00CF91A8
S11306300895CF93DF9380918C0083500AF4B4C063
S1130640909188009D3209F0ADC0883009F0AAC0AD
S113065080918900CCE0D0E0C81BD109C057DF4F9E
S113066083EC809370008AE58093610010926F00A0
S11306708881807619F0CE019EDE8BC09A8110921B
S113068079008981811106C010927A0029E730E04F
S113069082E07BC0853031F490938D0029E730E00F
S11306A080E073C0863009F050C08B81813041F402
S11306B085E690E090938B0080938A0082E141C0AC
S11306C0823041F483E490E090938B0080938A001D
S11306D082E237C08330F1F4911108C083E990E0DD
S11306E090938B0080938A0084E02BC0913041F476
S11306F08BE890E090938B0080938A0088E021C07F
S11307009230E1F487E790E090938B0080938A0025
S113071084E117C0813241F485E590E090938B0029
S113072080938A0089E00DC0823251F486E290E021
S113073090938B0080938A008DE103C080E001C018
S113074080E090E490936F0024C0883099F0893061
S113075031F490938F0029E730E080E016C08A30AE
S113076069F08B3079F48BE480937C0029E730E0E6
S113077080E00BC02FE830E081E007C029E730E0DB
S113078081E003C029E730E080E030938B002093C0
S11307908A009F81911104C09E81981708F4892FC3
S11307A08093600010928C008091610084FF4BC0A4
S11307B0809160008F3F09F446C0C82F893008F04B
S11307C0C8E08C1B80936000E0E7F0E0908188E84B
S11307D089278083CC2309F444C020918A00309176
S11307E08B0080916F0086FF10C0A1E7B0E0F90193
S11307F08C2F94919D9331968150D9F78FEF8C0F64
S113080090E00196280F391F0EC0D901E1E7F0E00E
S11308108C2F9D9191938150E1F78FEF8C0F90E095
S11308200196280F391F30938B0020938A006C2F78
S113083081E790E062DCCC5FCC3018F48FEF8093DA
S11308406000C093610080B38C7089F493E180B33D
S11308508C7069F49150D9F710928D001092870032
S113086006C06C2F81E790E048DCCC5FE7CFDF91D6
S1130870CF91089585B7826085BF8BB780648BBFA5
S1130880EBE7F0E08BE481838AE580830895F894B4
S1050890FFCF94
S1050892FF5A07
S9030000FC
