:1000000056C08AC06FC06EC06DC06CC06BC06AC085
:1000100069C068C067C066C065C064C063C062C0B4
:1000200061C060C05FC0050C0901A1018501190014
:100030002A3C021500263C02950175108100C0097A
:1000400002220001010080320904000001030101C5
:1000500000092101010001221900070581030800A0
:100060000A1201100100000008C016DB2700010180
:100070000200011E0356006F006C0075006D0065E4
:1000800000200063006F006E00740072006F006C4F
:100090000018036F0062007200750062006F006656
:1000A0000066002E0072007500040309040011248C
:1000B0001FBECFE5D4E0DEBFCDBF10E0A0E6B0E0CC
:1000C000E0E7F7E002C005900D92A236B107D9F73C
:1000D00020E0A2E6B0E001C01D92AF39B207E1F71F
:1000E000A9D144C38DCFA82FB92F80E090E041E083
:1000F00050EA609530E009C02D9182279795879549
:1001000010F084279527305EC8F36F5FA8F3089539
:10011000EADF8D939D930895CF93CFB7CF93C39587
:10012000B09BE9F7B09B09C0B09B07C0B09B05C06E
:10013000B09B03C0B09B01C0A3C0DF93C0918200FD
:10014000DD27C757DF4FB09B02C0DF91EBCF2F9366
:100150000F931F9306B32FEF00FB20F94F933F93AC
:1001600016B34FEF012700FB21F93BE031C04E7F72
:10017000012F16B3216028C0102F4D7F2260000090
:1001800006B329C04B7F2460012F000016B32BC09B
:1001900016B3477F28602AC04F7E06B320612CC06B
:1001A0004F7D16B320622FC04F7B06B3206432C050
:1001B000422706B349934FEF0000102710FB20F9A8
:1001C00016B31370C9F1297F91F2012700FB21F9C1
:1001D00006B3237F89F2315058F1102710FB22F922
:1001E00016B3277E79F2012700FB23F92F7C81F2D9
:1001F00006B3102710FB24F92F7971F200C016B353
:10020000012700FB25F92F7359F200C006B3102710
:1002100010FB26F9223040F200C016B3012700FB84
:1002200027F9243028F64F77206816B30000F9CF5D
:1002300010E41ABF002719C03B503195C31BD040B2
:1002400010E41ABF0881033CF9F00B34E9F0209167
:1002500080001981110F1213EDCF4A81441F093616
:1002600041F10D3211F0013E29F7009387003F91D3
:100270004F911F910F912F91DF91CAB7C6FD4FCFBC
:10028000CF91CFBFCF91189520918700222379F38A
:1002900010918500112369F534306AF1309385009F
:1002A00020938100109182003BE0311B309382004B
:1002B00022C0009185000130E4F40AE54F7049F452
:1002C0003091610034FD19C000936100C9E6D0E0AF
:1002D00018C03091740034FD10C000937400C5E75D
:1002E000D0E00FC02795A8F45150A9F4220F0000C8
:1002F000F9CF4AE503C042ED01C0432FC4E1D0E08D
:1003000032E017B31360C09A17BB08B320E413E0C0
:100310005F93012756E008BB279520F4515021F444
:10032000220FF9CF012756E000003B5A08BBD0F25C
:10033000279528F4515029F4220F0000F9CF012706
:1003400056E0279508BB20F4515021F4220FF9CF35
:10035000012756E02991332308BB21F60C7F109129
:100360008600110FC651D04008BB11F010938000D9
:1003700010E41ABF016017B31C7F402F4C7F5F91C0
:1003800000C000C008BB17BB48BB71CFBC98BD986C
:10039000BA98C49AC59AC29A089586B38295817014
:1003A000B599826090916200292F2370821781F0A5
:1003B000990F990F892B80936200813E21F48FEF72
:1003C000809363000895823D19F481E08093630077
:1003D00008958091630010926300089586B382FBB4
:1003E000882780F991E089270895FC0185E690E04F
:1003F0009093840080938300908190769032A1F452
:100400008181813099F0823041F484E690E09093CC
:1004100084008093830081E008958A3049F48381C9
:100420008093640080E0089580E0089583E008955B
:1004300080E00895ABDF8DD1B89A8FEFE7EBFBE05A
:100440003197F1F700C000008150C1F7B898789457
:10045000E5E6F0E081E08083128200E010E00F2EFC
:10046000FAEE9F2EF02DA12C0F2EF9EE8F2EF02DEF
:100470000F2EF2EEBF2EF02D0F2EF4E7CF2EF0E070
:10048000DF2EF02D7F0102C00D2F1C2F41D085DF04
:10049000A0DF8F3F21F0813021F4D82D03C0D92D6A
:1004A00001C0DA2D9BDFC82F181719F0813009F031
:1004B000DB2D0D1749F3F601808184FFE6CFF701AC
:1004C000D18363E0C70102D00D2FDFCFCF93C62FBA
:1004D0002091740024FF07C0E4E7F0E0318128E8B0
:1004E0002327218303C02AE520937400E82FF92FE6
:1004F000A6E7B0E08C2F91919D938150E1F76C2F8E
:1005000086E790E005DECC5FC0937400CF9108953C
:10051000CF93DF938091850083500AF4B4C090910B
:1005200081009D3209F0ADC0883009F0AAC08091E9
:100530008200CCE0D0E0C81BD109C757DF4F83EC65
:10054000809369008AE58093610010926800888139
:10055000807619F0CE0149DF8BC09A81109272002B
:100560008981811106C01092730022E730E082E099
:100570007BC0853031F49093860022E730E080E044
:1005800073C0863009F050C08B81813041F481E620
:1005900090E0909384008093830082E141C0823098
:1005A00041F48FE390E0909384008093830082E293
:1005B00037C08330F1F4911108C089EA90E090933C
:1005C00084008093830084E02BC0913041F481E962
:1005D00090E0909384008093830088E121C0923062
:1005E000E1F483E790E090938400809383008EE1B0
:1005F00017C0813241F481E590E0909384008093AC
:10060000830089E00DC0823251F486E290E090933D
:1006100084008093830089E103C080E001C080E012
:1006200090E49093680024C0883099F0893031F4C8
:100630009093880022E730E080E016C08A3069F0AD
:100640008B3079F48BE48093750022E730E080E012
:100650000BC028E830E081E007C022E730E081E00D
:1006600003C022E730E080E03093840020938300D1
:100670009F81911104C09E81981708F4892F80935F
:100680006000109285008091610084FF4BC08091D2
:1006900060008F3F09F446C0C82F893008F0C8E0D9
:1006A0008C1B80936000E9E6F0E0908188E8892760
:1006B0008083CC2309F444C02091830030918400CE
:1006C0008091680086FF10C0AAE6B0E0F9018C2F87
:1006D00094919D9331968150D9F78FEF8C0F90E0D4
:1006E0000196280F391F0EC0D901EAE6F0E08C2FE1
:1006F0009D9191938150E1F78FEF8C0F90E00196DF
:10070000280F391F30938400209383006C2F8AE6D2
:1007100090E0FEDCCC5FCC3018F48FEF809360006B
:10072000C093610086B3837089F493E186B38370CC
:1007300069F49150D9F7109286001092800006C09B
:100740006C2F8AE690E0E4DCCC5FE7CFDF91CF91BD
:10075000089585B7826085BF8BB780648BBFE4E75F
:10076000F0E08BE481838AE580830895F894FFCFDD
:02077000FF5A2E
:00000001FF
